{
  "_format": "hh-sol-artifact-1",
  "contractName": "Auction",
  "sourceName": "contracts/Auction.sol",
  "abi": [
    {
      "inputs": [],
      "name": "ReentrancyGuardReentrantCall",
      "type": "error"
    },
    {
      "anonymous": false,
      "inputs": [
        {
          "indexed": true,
          "internalType": "uint256",
          "name": "auctionId",
          "type": "uint256"
        },
        {
          "indexed": true,
          "internalType": "address",
          "name": "seller",
          "type": "address"
        },
        {
          "indexed": false,
          "internalType": "uint256",
          "name": "tokenId",
          "type": "uint256"
        },
        {
          "indexed": false,
          "internalType": "uint256",
          "name": "endTime",
          "type": "uint256"
        }
      ],
      "name": "AuctionCreated",
      "type": "event"
    },
    {
      "anonymous": false,
      "inputs": [
        {
          "indexed": true,
          "internalType": "uint256",
          "name": "auctionId",
          "type": "uint256"
        },
        {
          "indexed": false,
          "internalType": "address",
          "name": "winner",
          "type": "address"
        },
        {
          "indexed": false,
          "internalType": "uint256",
          "name": "amount",
          "type": "uint256"
        }
      ],
      "name": "AuctionFinalized",
      "type": "event"
    },
    {
      "anonymous": false,
      "inputs": [
        {
          "indexed": true,
          "internalType": "uint256",
          "name": "auctionId",
          "type": "uint256"
        },
        {
          "indexed": true,
          "internalType": "address",
          "name": "bidder",
          "type": "address"
        },
        {
          "indexed": false,
          "internalType": "uint256",
          "name": "amount",
          "type": "uint256"
        }
      ],
      "name": "BidPlaced",
      "type": "event"
    },
    {
      "inputs": [],
      "name": "auctionCount",
      "outputs": [
        {
          "internalType": "uint256",
          "name": "",
          "type": "uint256"
        }
      ],
      "stateMutability": "view",
      "type": "function"
    },
    {
      "inputs": [
        {
          "internalType": "uint256",
          "name": "",
          "type": "uint256"
        }
      ],
      "name": "auctions",
      "outputs": [
        {
          "internalType": "address",
          "name": "seller",
          "type": "address"
        },
        {
          "internalType": "address",
          "name": "nftContract",
          "type": "address"
        },
        {
          "internalType": "uint256",
          "name": "tokenId",
          "type": "uint256"
        },
        {
          "internalType": "uint256",
          "name": "highestBid",
          "type": "uint256"
        },
        {
          "internalType": "address",
          "name": "highestBidder",
          "type": "address"
        },
        {
          "internalType": "uint256",
          "name": "endTime",
          "type": "uint256"
        },
        {
          "internalType": "bool",
          "name": "finalized",
          "type": "bool"
        }
      ],
      "stateMutability": "view",
      "type": "function"
    },
    {
      "inputs": [
        {
          "internalType": "address",
          "name": "nftContract",
          "type": "address"
        },
        {
          "internalType": "uint256",
          "name": "tokenId",
          "type": "uint256"
        },
        {
          "internalType": "uint256",
          "name": "startingBid",
          "type": "uint256"
        },
        {
          "internalType": "uint256",
          "name": "duration",
          "type": "uint256"
        }
      ],
      "name": "createAuction",
      "outputs": [],
      "stateMutability": "nonpayable",
      "type": "function"
    },
    {
      "inputs": [
        {
          "internalType": "uint256",
          "name": "auctionId",
          "type": "uint256"
        }
      ],
      "name": "finalizeAuction",
      "outputs": [],
      "stateMutability": "nonpayable",
      "type": "function"
    },
    {
      "inputs": [
        {
          "internalType": "uint256",
          "name": "auctionId",
          "type": "uint256"
        }
      ],
      "name": "placeBid",
      "outputs": [],
      "stateMutability": "payable",
      "type": "function"
    }
  ],
  "bytecode": "0x608060405234801561001057600080fd5b5060016000819055506110dd806100286000396000f3fe60806040526004361061004a5760003560e01c80632ad715731461004f578063571a26a01461007a57806361beb1d7146100bd5780639979ef45146100e6578063e808386314610102575b600080fd5b34801561005b57600080fd5b5061006461012b565b6040516100719190610b01565b60405180910390f35b34801561008657600080fd5b506100a1600480360381019061009c9190610b4d565b610131565b6040516100b49796959493929190610bd6565b60405180910390f35b3480156100c957600080fd5b506100e460048036038101906100df9190610c71565b6101e0565b005b61010060048036038101906100fb9190610b4d565b6104bd565b005b34801561010e57600080fd5b5061012960048036038101906101249190610b4d565b6106d7565b005b60015481565b60026020528060005260406000206000915090508060000160009054906101000a900473ffffffffffffffffffffffffffffffffffffffff16908060010160009054906101000a900473ffffffffffffffffffffffffffffffffffffffff16908060020154908060030154908060040160009054906101000a900473ffffffffffffffffffffffffffffffffffffffff16908060050154908060060160009054906101000a900460ff16905087565b60008111610223576040517f08c379a000000000000000000000000000000000000000000000000000000000815260040161021a90610d35565b60405180910390fd5b8373ffffffffffffffffffffffffffffffffffffffff166323b872dd3330866040518463ffffffff1660e01b815260040161026093929190610d55565b600060405180830381600087803b15801561027a57600080fd5b505af115801561028e573d6000803e3d6000fd5b50505050600160008154809291906102a590610dbb565b91905055506040518060e001604052803373ffffffffffffffffffffffffffffffffffffffff1681526020018573ffffffffffffffffffffffffffffffffffffffff168152602001848152602001838152602001600073ffffffffffffffffffffffffffffffffffffffff16815260200182426103229190610e03565b81526020016000151581525060026000600154815260200190815260200160002060008201518160000160006101000a81548173ffffffffffffffffffffffffffffffffffffffff021916908373ffffffffffffffffffffffffffffffffffffffff16021790555060208201518160010160006101000a81548173ffffffffffffffffffffffffffffffffffffffff021916908373ffffffffffffffffffffffffffffffffffffffff160217905550604082015181600201556060820151816003015560808201518160040160006101000a81548173ffffffffffffffffffffffffffffffffffffffff021916908373ffffffffffffffffffffffffffffffffffffffff16021790555060a0820151816005015560c08201518160060160006101000a81548160ff0219169083151502179055509050503373ffffffffffffffffffffffffffffffffffffffff166001547fc9050d42180a61cb0d9ebb8ad118b62fe6eab12cf12ff752c4a0cc7da9ddf6278584426104a19190610e03565b6040516104af929190610e37565b60405180910390a350505050565b6104c5610a98565b600060026000838152602001908152602001600020905080600501544210610522576040517f08c379a000000000000000000000000000000000000000000000000000000000815260040161051990610eac565b60405180910390fd5b80600301543411610568576040517f08c379a000000000000000000000000000000000000000000000000000000000815260040161055f90610f18565b60405180910390fd5b600073ffffffffffffffffffffffffffffffffffffffff168160040160009054906101000a900473ffffffffffffffffffffffffffffffffffffffff1673ffffffffffffffffffffffffffffffffffffffff1614610630578060040160009054906101000a900473ffffffffffffffffffffffffffffffffffffffff1673ffffffffffffffffffffffffffffffffffffffff166108fc82600301549081150290604051600060405180830381858888f1935050505015801561062e573d6000803e3d6000fd5b505b348160030181905550338160040160006101000a81548173ffffffffffffffffffffffffffffffffffffffff021916908373ffffffffffffffffffffffffffffffffffffffff1602179055503373ffffffffffffffffffffffffffffffffffffffff16827f0e54eff26401bf69b81b26f60bd85ef47f5d85275c1d268d84f68d6897431c47346040516106c39190610b01565b60405180910390a3506106d4610ade565b50565b6106df610a98565b6000600260008381526020019081526020016000209050806005015442101561073d576040517f08c379a000000000000000000000000000000000000000000000000000000000815260040161073490610f84565b60405180910390fd5b8060060160009054906101000a900460ff161561078f576040517f08c379a000000000000000000000000000000000000000000000000000000000815260040161078690610ff0565b60405180910390fd5b60018160060160006101000a81548160ff021916908315150217905550600073ffffffffffffffffffffffffffffffffffffffff168160040160009054906101000a900473ffffffffffffffffffffffffffffffffffffffff1673ffffffffffffffffffffffffffffffffffffffff1614610995578060010160009054906101000a900473ffffffffffffffffffffffffffffffffffffffff1673ffffffffffffffffffffffffffffffffffffffff166323b872dd308360040160009054906101000a900473ffffffffffffffffffffffffffffffffffffffff1684600201546040518463ffffffff1660e01b815260040161088d93929190610d55565b600060405180830381600087803b1580156108a757600080fd5b505af11580156108bb573d6000803e3d6000fd5b505050508060000160009054906101000a900473ffffffffffffffffffffffffffffffffffffffff1673ffffffffffffffffffffffffffffffffffffffff166108fc82600301549081150290604051600060405180830381858888f1935050505015801561092d573d6000803e3d6000fd5b50817f4d9113a1377d665eaa1f9168a9c9080f2e488cb820b10149de3d6d2e0f2780c78260040160009054906101000a900473ffffffffffffffffffffffffffffffffffffffff168360030154604051610988929190611010565b60405180910390a2610a8c565b8060010160009054906101000a900473ffffffffffffffffffffffffffffffffffffffff1673ffffffffffffffffffffffffffffffffffffffff166323b872dd308360000160009054906101000a900473ffffffffffffffffffffffffffffffffffffffff1684600201546040518463ffffffff1660e01b8152600401610a1e93929190610d55565b600060405180830381600087803b158015610a3857600080fd5b505af1158015610a4c573d6000803e3d6000fd5b50505050817f4d9113a1377d665eaa1f9168a9c9080f2e488cb820b10149de3d6d2e0f2780c7600080604051610a8392919061107e565b60405180910390a25b50610a95610ade565b50565b600260005403610ad4576040517f3ee5aeb500000000000000000000000000000000000000000000000000000000815260040160405180910390fd5b6002600081905550565b6001600081905550565b6000819050919050565b610afb81610ae8565b82525050565b6000602082019050610b166000830184610af2565b92915050565b600080fd5b610b2a81610ae8565b8114610b3557600080fd5b50565b600081359050610b4781610b21565b92915050565b600060208284031215610b6357610b62610b1c565b5b6000610b7184828501610b38565b91505092915050565b600073ffffffffffffffffffffffffffffffffffffffff82169050919050565b6000610ba582610b7a565b9050919050565b610bb581610b9a565b82525050565b60008115159050919050565b610bd081610bbb565b82525050565b600060e082019050610beb600083018a610bac565b610bf86020830189610bac565b610c056040830188610af2565b610c126060830187610af2565b610c1f6080830186610bac565b610c2c60a0830185610af2565b610c3960c0830184610bc7565b98975050505050505050565b610c4e81610b9a565b8114610c5957600080fd5b50565b600081359050610c6b81610c45565b92915050565b60008060008060808587031215610c8b57610c8a610b1c565b5b6000610c9987828801610c5c565b9450506020610caa87828801610b38565b9350506040610cbb87828801610b38565b9250506060610ccc87828801610b38565b91505092959194509250565b600082825260208201905092915050565b7f496e76616c6964206475726174696f6e00000000000000000000000000000000600082015250565b6000610d1f601083610cd8565b9150610d2a82610ce9565b602082019050919050565b60006020820190508181036000830152610d4e81610d12565b9050919050565b6000606082019050610d6a6000830186610bac565b610d776020830185610bac565b610d846040830184610af2565b949350505050565b7f4e487b7100000000000000000000000000000000000000000000000000000000600052601160045260246000fd5b6000610dc682610ae8565b91507fffffffffffffffffffffffffffffffffffffffffffffffffffffffffffffffff8203610df857610df7610d8c565b5b600182019050919050565b6000610e0e82610ae8565b9150610e1983610ae8565b9250828201905080821115610e3157610e30610d8c565b5b92915050565b6000604082019050610e4c6000830185610af2565b610e596020830184610af2565b9392505050565b7f41756374696f6e20656e64656400000000000000000000000000000000000000600082015250565b6000610e96600d83610cd8565b9150610ea182610e60565b602082019050919050565b60006020820190508181036000830152610ec581610e89565b9050919050565b7f42696420746f6f206c6f77000000000000000000000000000000000000000000600082015250565b6000610f02600b83610cd8565b9150610f0d82610ecc565b602082019050919050565b60006020820190508181036000830152610f3181610ef5565b9050919050565b7f41756374696f6e206e6f7420656e646564000000000000000000000000000000600082015250565b6000610f6e601183610cd8565b9150610f7982610f38565b602082019050919050565b60006020820190508181036000830152610f9d81610f61565b9050919050565b7f416c72656164792066696e616c697a6564000000000000000000000000000000600082015250565b6000610fda601183610cd8565b9150610fe582610fa4565b602082019050919050565b6000602082019050818103600083015261100981610fcd565b9050919050565b60006040820190506110256000830185610bac565b6110326020830184610af2565b9392505050565b6000819050919050565b6000819050919050565b600061106861106361105e84611039565b611043565b610ae8565b9050919050565b6110788161104d565b82525050565b60006040820190506110936000830185610bac565b6110a0602083018461106f565b939250505056fea2646970667358221220da310045403595de2e5325a9eecee08d33b6d83546fdd1ef7a30e3af79898eea64736f6c63430008140033",
  "linkReferences": {},
  "deployedLinkReferences": {}
}