{
  "_format": "hh-sol-artifact-1",
  "contractName": "CarbonCredit",
  "sourceName": "contracts/CarbonCredit.sol",
  "abi": [
    {
      "inputs": [
        {
          "internalType": "address",
          "name": "initialOwner",
          "type": "address"
        }
      ],
      "stateMutability": "nonpayable",
      "type": "constructor"
    },
    {
      "inputs": [
        {
          "internalType": "address",
          "name": "sender",
          "type": "address"
        },
        {
          "internalType": "uint256",
          "name": "tokenId",
          "type": "uint256"
        },
        {
          "internalType": "address",
          "name": "owner",
          "type": "address"
        }
      ],
      "name": "ERC721IncorrectOwner",
      "type": "error"
    },
    {
      "inputs": [
        {
          "internalType": "address",
          "name": "operator",
          "type": "address"
        },
        {
          "internalType": "uint256",
          "name": "tokenId",
          "type": "uint256"
        }
      ],
      "name": "ERC721InsufficientApproval",
      "type": "error"
    },
    {
      "inputs": [
        {
          "internalType": "address",
          "name": "approver",
          "type": "address"
        }
      ],
      "name": "ERC721InvalidApprover",
      "type": "error"
    },
    {
      "inputs": [
        {
          "internalType": "address",
          "name": "operator",
          "type": "address"
        }
      ],
      "name": "ERC721InvalidOperator",
      "type": "error"
    },
    {
      "inputs": [
        {
          "internalType": "address",
          "name": "owner",
          "type": "address"
        }
      ],
      "name": "ERC721InvalidOwner",
      "type": "error"
    },
    {
      "inputs": [
        {
          "internalType": "address",
          "name": "receiver",
          "type": "address"
        }
      ],
      "name": "ERC721InvalidReceiver",
      "type": "error"
    },
    {
      "inputs": [
        {
          "internalType": "address",
          "name": "sender",
          "type": "address"
        }
      ],
      "name": "ERC721InvalidSender",
      "type": "error"
    },
    {
      "inputs": [
        {
          "internalType": "uint256",
          "name": "tokenId",
          "type": "uint256"
        }
      ],
      "name": "ERC721NonexistentToken",
      "type": "error"
    },
    {
      "inputs": [
        {
          "internalType": "address",
          "name": "owner",
          "type": "address"
        }
      ],
      "name": "OwnableInvalidOwner",
      "type": "error"
    },
    {
      "inputs": [
        {
          "internalType": "address",
          "name": "account",
          "type": "address"
        }
      ],
      "name": "OwnableUnauthorizedAccount",
      "type": "error"
    },
    {
      "anonymous": false,
      "inputs": [
        {
          "indexed": true,
          "internalType": "address",
          "name": "owner",
          "type": "address"
        },
        {
          "indexed": true,
          "internalType": "address",
          "name": "approved",
          "type": "address"
        },
        {
          "indexed": true,
          "internalType": "uint256",
          "name": "tokenId",
          "type": "uint256"
        }
      ],
      "name": "Approval",
      "type": "event"
    },
    {
      "anonymous": false,
      "inputs": [
        {
          "indexed": true,
          "internalType": "address",
          "name": "owner",
          "type": "address"
        },
        {
          "indexed": true,
          "internalType": "address",
          "name": "operator",
          "type": "address"
        },
        {
          "indexed": false,
          "internalType": "bool",
          "name": "approved",
          "type": "bool"
        }
      ],
      "name": "ApprovalForAll",
      "type": "event"
    },
    {
      "anonymous": false,
      "inputs": [
        {
          "indexed": true,
          "internalType": "address",
          "name": "previousOwner",
          "type": "address"
        },
        {
          "indexed": true,
          "internalType": "address",
          "name": "newOwner",
          "type": "address"
        }
      ],
      "name": "OwnershipTransferred",
      "type": "event"
    },
    {
      "anonymous": false,
      "inputs": [
        {
          "indexed": true,
          "internalType": "address",
          "name": "from",
          "type": "address"
        },
        {
          "indexed": true,
          "internalType": "address",
          "name": "to",
          "type": "address"
        },
        {
          "indexed": true,
          "internalType": "uint256",
          "name": "tokenId",
          "type": "uint256"
        }
      ],
      "name": "Transfer",
      "type": "event"
    },
    {
      "inputs": [
        {
          "internalType": "address",
          "name": "to",
          "type": "address"
        },
        {
          "internalType": "uint256",
          "name": "tokenId",
          "type": "uint256"
        }
      ],
      "name": "approve",
      "outputs": [],
      "stateMutability": "nonpayable",
      "type": "function"
    },
    {
      "inputs": [
        {
          "internalType": "address",
          "name": "owner",
          "type": "address"
        }
      ],
      "name": "balanceOf",
      "outputs": [
        {
          "internalType": "uint256",
          "name": "",
          "type": "uint256"
        }
      ],
      "stateMutability": "view",
      "type": "function"
    },
    {
      "inputs": [
        {
          "internalType": "uint256",
          "name": "tokenId",
          "type": "uint256"
        }
      ],
      "name": "getApproved",
      "outputs": [
        {
          "internalType": "address",
          "name": "",
          "type": "address"
        }
      ],
      "stateMutability": "view",
      "type": "function"
    },
    {
      "inputs": [
        {
          "internalType": "address",
          "name": "owner",
          "type": "address"
        },
        {
          "internalType": "address",
          "name": "operator",
          "type": "address"
        }
      ],
      "name": "isApprovedForAll",
      "outputs": [
        {
          "internalType": "bool",
          "name": "",
          "type": "bool"
        }
      ],
      "stateMutability": "view",
      "type": "function"
    },
    {
      "inputs": [
        {
          "internalType": "address",
          "name": "to",
          "type": "address"
        },
        {
          "internalType": "string",
          "name": "metadataURI",
          "type": "string"
        }
      ],
      "name": "mintCarbonCredit",
      "outputs": [
        {
          "internalType": "uint256",
          "name": "",
          "type": "uint256"
        }
      ],
      "stateMutability": "nonpayable",
      "type": "function"
    },
    {
      "inputs": [],
      "name": "name",
      "outputs": [
        {
          "internalType": "string",
          "name": "",
          "type": "string"
        }
      ],
      "stateMutability": "view",
      "type": "function"
    },
    {
      "inputs": [],
      "name": "owner",
      "outputs": [
        {
          "internalType": "address",
          "name": "",
          "type": "address"
        }
      ],
      "stateMutability": "view",
      "type": "function"
    },
    {
      "inputs": [
        {
          "internalType": "uint256",
          "name": "tokenId",
          "type": "uint256"
        }
      ],
      "name": "ownerOf",
      "outputs": [
        {
          "internalType": "address",
          "name": "",
          "type": "address"
        }
      ],
      "stateMutability": "view",
      "type": "function"
    },
    {
      "inputs": [],
      "name": "renounceOwnership",
      "outputs": [],
      "stateMutability": "nonpayable",
      "type": "function"
    },
    {
      "inputs": [
        {
          "internalType": "address",
          "name": "from",
          "type": "address"
        },
        {
          "internalType": "address",
          "name": "to",
          "type": "address"
        },
        {
          "internalType": "uint256",
          "name": "tokenId",
          "type": "uint256"
        }
      ],
      "name": "safeTransferFrom",
      "outputs": [],
      "stateMutability": "nonpayable",
      "type": "function"
    },
    {
      "inputs": [
        {
          "internalType": "address",
          "name": "from",
          "type": "address"
        },
        {
          "internalType": "address",
          "name": "to",
          "type": "address"
        },
        {
          "internalType": "uint256",
          "name": "tokenId",
          "type": "uint256"
        },
        {
          "internalType": "bytes",
          "name": "data",
          "type": "bytes"
        }
      ],
      "name": "safeTransferFrom",
      "outputs": [],
      "stateMutability": "nonpayable",
      "type": "function"
    },
    {
      "inputs": [
        {
          "internalType": "address",
          "name": "operator",
          "type": "address"
        },
        {
          "internalType": "bool",
          "name": "approved",
          "type": "bool"
        }
      ],
      "name": "setApprovalForAll",
      "outputs": [],
      "stateMutability": "nonpayable",
      "type": "function"
    },
    {
      "inputs": [
        {
          "internalType": "bytes4",
          "name": "interfaceId",
          "type": "bytes4"
        }
      ],
      "name": "supportsInterface",
      "outputs": [
        {
          "internalType": "bool",
          "name": "",
          "type": "bool"
        }
      ],
      "stateMutability": "view",
      "type": "function"
    },
    {
      "inputs": [],
      "name": "symbol",
      "outputs": [
        {
          "internalType": "string",
          "name": "",
          "type": "string"
        }
      ],
      "stateMutability": "view",
      "type": "function"
    },
    {
      "inputs": [
        {
          "internalType": "uint256",
          "name": "tokenId",
          "type": "uint256"
        }
      ],
      "name": "tokenURI",
      "outputs": [
        {
          "internalType": "string",
          "name": "",
          "type": "string"
        }
      ],
      "stateMutability": "view",
      "type": "function"
    },
    {
      "inputs": [
        {
          "internalType": "address",
          "name": "from",
          "type": "address"
        },
        {
          "internalType": "address",
          "name": "to",
          "type": "address"
        },
        {
          "internalType": "uint256",
          "name": "tokenId",
          "type": "uint256"
        }
      ],
      "name": "transferFrom",
      "outputs": [],
      "stateMutability": "nonpayable",
      "type": "function"
    },
    {
      "inputs": [
        {
          "internalType": "address",
          "name": "newOwner",
          "type": "address"
        }
      ],
      "name": "transferOwnership",
      "outputs": [],
      "stateMutability": "nonpayable",
      "type": "function"
    }
  ],
  "bytecode": "0x60806040523480156200001157600080fd5b506040516200293938038062002939833981810160405281019062000037919062000288565b806040518060400160405280600d81526020017f436172626f6e20437265646974000000000000000000000000000000000000008152506040518060400160405280600781526020017f43435245444954000000000000000000000000000000000000000000000000008152508160009081620000b5919062000534565b508060019081620000c7919062000534565b505050600073ffffffffffffffffffffffffffffffffffffffff168173ffffffffffffffffffffffffffffffffffffffff16036200013f5760006040517f1e4fbdf70000000000000000000000000000000000000000000000000000000081526004016200013691906200062c565b60405180910390fd5b62000150816200015860201b60201c565b505062000649565b6000600660009054906101000a900473ffffffffffffffffffffffffffffffffffffffff16905081600660006101000a81548173ffffffffffffffffffffffffffffffffffffffff021916908373ffffffffffffffffffffffffffffffffffffffff1602179055508173ffffffffffffffffffffffffffffffffffffffff168173ffffffffffffffffffffffffffffffffffffffff167f8be0079c531659141344cd1fd0a4f28419497f9722a3daafe3b4186f6b6457e060405160405180910390a35050565b600080fd5b600073ffffffffffffffffffffffffffffffffffffffff82169050919050565b6000620002508262000223565b9050919050565b620002628162000243565b81146200026e57600080fd5b50565b600081519050620002828162000257565b92915050565b600060208284031215620002a157620002a06200021e565b5b6000620002b18482850162000271565b91505092915050565b600081519050919050565b7f4e487b7100000000000000000000000000000000000000000000000000000000600052604160045260246000fd5b7f4e487b7100000000000000000000000000000000000000000000000000000000600052602260045260246000fd5b600060028204905060018216806200033c57607f821691505b602082108103620003525762000351620002f4565b5b50919050565b60008190508160005260206000209050919050565b60006020601f8301049050919050565b600082821b905092915050565b600060088302620003bc7fffffffffffffffffffffffffffffffffffffffffffffffffffffffffffffffff826200037d565b620003c886836200037d565b95508019841693508086168417925050509392505050565b6000819050919050565b6000819050919050565b6000620004156200040f6200040984620003e0565b620003ea565b620003e0565b9050919050565b6000819050919050565b6200043183620003f4565b6200044962000440826200041c565b8484546200038a565b825550505050565b600090565b6200046062000451565b6200046d81848462000426565b505050565b5b8181101562000495576200048960008262000456565b60018101905062000473565b5050565b601f821115620004e457620004ae8162000358565b620004b9846200036d565b81016020851015620004c9578190505b620004e1620004d8856200036d565b83018262000472565b50505b505050565b600082821c905092915050565b60006200050960001984600802620004e9565b1980831691505092915050565b6000620005248383620004f6565b9150826002028217905092915050565b6200053f82620002ba565b67ffffffffffffffff8111156200055b576200055a620002c5565b5b62000567825462000323565b6200057482828562000499565b600060209050601f831160018114620005ac576000841562000597578287015190505b620005a3858262000516565b86555062000613565b601f198416620005bc8662000358565b60005b82811015620005e657848901518255600182019150602085019450602081019050620005bf565b8683101562000606578489015162000602601f891682620004f6565b8355505b6001600288020188555050505b505050505050565b620006268162000243565b82525050565b60006020820190506200064360008301846200061b565b92915050565b6122e080620006596000396000f3fe608060405234801561001057600080fd5b506004361061010b5760003560e01c806370a08231116100a2578063a22cb46511610071578063a22cb465146102b8578063b88d4fde146102d4578063c87b56dd146102f0578063e985e9c514610320578063f2fde38b146103505761010b565b806370a0823114610242578063715018a6146102725780638da5cb5b1461027c57806395d89b411461029a5761010b565b806323b872dd116100de57806323b872dd146101aa5780633bab9caa146101c657806342842e0e146101f65780636352211e146102125761010b565b806301ffc9a71461011057806306fdde0314610140578063081812fc1461015e578063095ea7b31461018e575b600080fd5b61012a6004803603810190610125919061175b565b61036c565b60405161013791906117a3565b60405180910390f35b61014861044e565b604051610155919061184e565b60405180910390f35b610178600480360381019061017391906118a6565b6104e0565b6040516101859190611914565b60405180910390f35b6101a860048036038101906101a3919061195b565b6104fc565b005b6101c460048036038101906101bf919061199b565b610512565b005b6101e060048036038101906101db9190611b23565b610614565b6040516101ed9190611b8e565b60405180910390f35b610210600480360381019061020b919061199b565b610672565b005b61022c600480360381019061022791906118a6565b610692565b6040516102399190611914565b60405180910390f35b61025c60048036038101906102579190611ba9565b6106a4565b6040516102699190611b8e565b60405180910390f35b61027a61075e565b005b610284610772565b6040516102919190611914565b60405180910390f35b6102a261079c565b6040516102af919061184e565b60405180910390f35b6102d260048036038101906102cd9190611c02565b61082e565b005b6102ee60048036038101906102e99190611ce3565b610844565b005b61030a600480360381019061030591906118a6565b610869565b604051610317919061184e565b60405180910390f35b61033a60048036038101906103359190611d66565b610985565b60405161034791906117a3565b60405180910390f35b61036a60048036038101906103659190611ba9565b610a19565b005b60007f80ac58cd000000000000000000000000000000000000000000000000000000007bffffffffffffffffffffffffffffffffffffffffffffffffffffffff1916827bffffffffffffffffffffffffffffffffffffffffffffffffffffffff1916148061043757507f5b5e139f000000000000000000000000000000000000000000000000000000007bffffffffffffffffffffffffffffffffffffffffffffffffffffffff1916827bffffffffffffffffffffffffffffffffffffffffffffffffffffffff1916145b80610447575061044682610a9f565b5b9050919050565b60606000805461045d90611dd5565b80601f016020809104026020016040519081016040528092919081815260200182805461048990611dd5565b80156104d65780601f106104ab576101008083540402835291602001916104d6565b820191906000526020600020905b8154815290600101906020018083116104b957829003601f168201915b5050505050905090565b60006104eb82610b09565b506104f582610b91565b9050919050565b61050e8282610509610bce565b610bd6565b5050565b600073ffffffffffffffffffffffffffffffffffffffff168273ffffffffffffffffffffffffffffffffffffffff16036105845760006040517f64a0ae9200000000000000000000000000000000000000000000000000000000815260040161057b9190611914565b60405180910390fd5b60006105988383610593610bce565b610be8565b90508373ffffffffffffffffffffffffffffffffffffffff168173ffffffffffffffffffffffffffffffffffffffff161461060e578382826040517f64283d7b00000000000000000000000000000000000000000000000000000000815260040161060593929190611e06565b60405180910390fd5b50505050565b600061061e610e02565b6007600081548092919061063190611e6c565b9190505550600060075490506106478482610e89565b826008600083815260200190815260200160002090816106679190612060565b508091505092915050565b61068d83838360405180602001604052806000815250610844565b505050565b600061069d82610b09565b9050919050565b60008073ffffffffffffffffffffffffffffffffffffffff168273ffffffffffffffffffffffffffffffffffffffff16036107175760006040517f89c62b6400000000000000000000000000000000000000000000000000000000815260040161070e9190611914565b60405180910390fd5b600360008373ffffffffffffffffffffffffffffffffffffffff1673ffffffffffffffffffffffffffffffffffffffff168152602001908152602001600020549050919050565b610766610e02565b6107706000610f82565b565b6000600660009054906101000a900473ffffffffffffffffffffffffffffffffffffffff16905090565b6060600180546107ab90611dd5565b80601f01602080910402602001604051908101604052809291908181526020018280546107d790611dd5565b80156108245780601f106107f957610100808354040283529160200191610824565b820191906000526020600020905b81548152906001019060200180831161080757829003601f168201915b5050505050905090565b610840610839610bce565b8383611048565b5050565b61084f848484610512565b61086361085a610bce565b858585856111b7565b50505050565b6060600073ffffffffffffffffffffffffffffffffffffffff1661088c83611368565b73ffffffffffffffffffffffffffffffffffffffff16036108e2576040517f08c379a00000000000000000000000000000000000000000000000000000000081526004016108d99061217e565b60405180910390fd5b60086000838152602001908152602001600020805461090090611dd5565b80601f016020809104026020016040519081016040528092919081815260200182805461092c90611dd5565b80156109795780601f1061094e57610100808354040283529160200191610979565b820191906000526020600020905b81548152906001019060200180831161095c57829003601f168201915b50505050509050919050565b6000600560008473ffffffffffffffffffffffffffffffffffffffff1673ffffffffffffffffffffffffffffffffffffffff16815260200190815260200160002060008373ffffffffffffffffffffffffffffffffffffffff1673ffffffffffffffffffffffffffffffffffffffff16815260200190815260200160002060009054906101000a900460ff16905092915050565b610a21610e02565b600073ffffffffffffffffffffffffffffffffffffffff168173ffffffffffffffffffffffffffffffffffffffff1603610a935760006040517f1e4fbdf7000000000000000000000000000000000000000000000000000000008152600401610a8a9190611914565b60405180910390fd5b610a9c81610f82565b50565b60007f01ffc9a7000000000000000000000000000000000000000000000000000000007bffffffffffffffffffffffffffffffffffffffffffffffffffffffff1916827bffffffffffffffffffffffffffffffffffffffffffffffffffffffff1916149050919050565b600080610b1583611368565b9050600073ffffffffffffffffffffffffffffffffffffffff168173ffffffffffffffffffffffffffffffffffffffff1603610b8857826040517f7e273289000000000000000000000000000000000000000000000000000000008152600401610b7f9190611b8e565b60405180910390fd5b80915050919050565b60006004600083815260200190815260200160002060009054906101000a900473ffffffffffffffffffffffffffffffffffffffff169050919050565b600033905090565b610be383838360016113a5565b505050565b600080610bf484611368565b9050600073ffffffffffffffffffffffffffffffffffffffff168373ffffffffffffffffffffffffffffffffffffffff1614610c3657610c3581848661156a565b5b600073ffffffffffffffffffffffffffffffffffffffff168173ffffffffffffffffffffffffffffffffffffffff1614610cc757610c786000856000806113a5565b6001600360008373ffffffffffffffffffffffffffffffffffffffff1673ffffffffffffffffffffffffffffffffffffffff168152602001908152602001600020600082825403925050819055505b600073ffffffffffffffffffffffffffffffffffffffff168573ffffffffffffffffffffffffffffffffffffffff1614610d4a576001600360008773ffffffffffffffffffffffffffffffffffffffff1673ffffffffffffffffffffffffffffffffffffffff168152602001908152602001600020600082825401925050819055505b846002600086815260200190815260200160002060006101000a81548173ffffffffffffffffffffffffffffffffffffffff021916908373ffffffffffffffffffffffffffffffffffffffff160217905550838573ffffffffffffffffffffffffffffffffffffffff168273ffffffffffffffffffffffffffffffffffffffff167fddf252ad1be2c89b69c2b068fc378daa952ba7f163c4a11628f55a4df523b3ef60405160405180910390a4809150509392505050565b610e0a610bce565b73ffffffffffffffffffffffffffffffffffffffff16610e28610772565b73ffffffffffffffffffffffffffffffffffffffff1614610e8757610e4b610bce565b6040517f118cdaa7000000000000000000000000000000000000000000000000000000008152600401610e7e9190611914565b60405180910390fd5b565b600073ffffffffffffffffffffffffffffffffffffffff168273ffffffffffffffffffffffffffffffffffffffff1603610efb5760006040517f64a0ae92000000000000000000000000000000000000000000000000000000008152600401610ef29190611914565b60405180910390fd5b6000610f0983836000610be8565b9050600073ffffffffffffffffffffffffffffffffffffffff168173ffffffffffffffffffffffffffffffffffffffff1614610f7d5760006040517f73c6ac6e000000000000000000000000000000000000000000000000000000008152600401610f749190611914565b60405180910390fd5b505050565b6000600660009054906101000a900473ffffffffffffffffffffffffffffffffffffffff16905081600660006101000a81548173ffffffffffffffffffffffffffffffffffffffff021916908373ffffffffffffffffffffffffffffffffffffffff1602179055508173ffffffffffffffffffffffffffffffffffffffff168173ffffffffffffffffffffffffffffffffffffffff167f8be0079c531659141344cd1fd0a4f28419497f9722a3daafe3b4186f6b6457e060405160405180910390a35050565b600073ffffffffffffffffffffffffffffffffffffffff168273ffffffffffffffffffffffffffffffffffffffff16036110b957816040517f5b08ba180000000000000000000000000000000000000000000000000000000081526004016110b09190611914565b60405180910390fd5b80600560008573ffffffffffffffffffffffffffffffffffffffff1673ffffffffffffffffffffffffffffffffffffffff16815260200190815260200160002060008473ffffffffffffffffffffffffffffffffffffffff1673ffffffffffffffffffffffffffffffffffffffff16815260200190815260200160002060006101000a81548160ff0219169083151502179055508173ffffffffffffffffffffffffffffffffffffffff168373ffffffffffffffffffffffffffffffffffffffff167f17307eab39ab6107e8899845ad3d59bd9653f200f220920489ca2b5937696c31836040516111aa91906117a3565b60405180910390a3505050565b60008373ffffffffffffffffffffffffffffffffffffffff163b1115611361578273ffffffffffffffffffffffffffffffffffffffff1663150b7a02868685856040518563ffffffff1660e01b815260040161121694939291906121f3565b6020604051808303816000875af192505050801561125257506040513d601f19601f8201168201806040525081019061124f9190612254565b60015b6112d6573d8060008114611282576040519150601f19603f3d011682016040523d82523d6000602084013e611287565b606091505b5060008151036112ce57836040517f64a0ae920000000000000000000000000000000000000000000000000000000081526004016112c59190611914565b60405180910390fd5b805160208201fd5b63150b7a0260e01b7bffffffffffffffffffffffffffffffffffffffffffffffffffffffff1916817bffffffffffffffffffffffffffffffffffffffffffffffffffffffff19161461135f57836040517f64a0ae920000000000000000000000000000000000000000000000000000000081526004016113569190611914565b60405180910390fd5b505b5050505050565b60006002600083815260200190815260200160002060009054906101000a900473ffffffffffffffffffffffffffffffffffffffff169050919050565b80806113de5750600073ffffffffffffffffffffffffffffffffffffffff168273ffffffffffffffffffffffffffffffffffffffff1614155b156115125760006113ee84610b09565b9050600073ffffffffffffffffffffffffffffffffffffffff168373ffffffffffffffffffffffffffffffffffffffff161415801561145957508273ffffffffffffffffffffffffffffffffffffffff168173ffffffffffffffffffffffffffffffffffffffff1614155b801561146c575061146a8184610985565b155b156114ae57826040517fa9fbf51f0000000000000000000000000000000000000000000000000000000081526004016114a59190611914565b60405180910390fd5b811561151057838573ffffffffffffffffffffffffffffffffffffffff168273ffffffffffffffffffffffffffffffffffffffff167f8c5be1e5ebec7d5bd14f71427d1e84f3dd0314c0f7b2291e5b200ac8c7c3b92560405160405180910390a45b505b836004600085815260200190815260200160002060006101000a81548173ffffffffffffffffffffffffffffffffffffffff021916908373ffffffffffffffffffffffffffffffffffffffff16021790555050505050565b61157583838361162e565b61162957600073ffffffffffffffffffffffffffffffffffffffff168373ffffffffffffffffffffffffffffffffffffffff16036115ea57806040517f7e2732890000000000000000000000000000000000000000000000000000000081526004016115e19190611b8e565b60405180910390fd5b81816040517f177e802f000000000000000000000000000000000000000000000000000000008152600401611620929190612281565b60405180910390fd5b505050565b60008073ffffffffffffffffffffffffffffffffffffffff168373ffffffffffffffffffffffffffffffffffffffff16141580156116e657508273ffffffffffffffffffffffffffffffffffffffff168473ffffffffffffffffffffffffffffffffffffffff1614806116a757506116a68484610985565b5b806116e557508273ffffffffffffffffffffffffffffffffffffffff166116cd83610b91565b73ffffffffffffffffffffffffffffffffffffffff16145b5b90509392505050565b6000604051905090565b600080fd5b600080fd5b60007fffffffff0000000000000000000000000000000000000000000000000000000082169050919050565b61173881611703565b811461174357600080fd5b50565b6000813590506117558161172f565b92915050565b600060208284031215611771576117706116f9565b5b600061177f84828501611746565b91505092915050565b60008115159050919050565b61179d81611788565b82525050565b60006020820190506117b86000830184611794565b92915050565b600081519050919050565b600082825260208201905092915050565b60005b838110156117f85780820151818401526020810190506117dd565b60008484015250505050565b6000601f19601f8301169050919050565b6000611820826117be565b61182a81856117c9565b935061183a8185602086016117da565b61184381611804565b840191505092915050565b600060208201905081810360008301526118688184611815565b905092915050565b6000819050919050565b61188381611870565b811461188e57600080fd5b50565b6000813590506118a08161187a565b92915050565b6000602082840312156118bc576118bb6116f9565b5b60006118ca84828501611891565b91505092915050565b600073ffffffffffffffffffffffffffffffffffffffff82169050919050565b60006118fe826118d3565b9050919050565b61190e816118f3565b82525050565b60006020820190506119296000830184611905565b92915050565b611938816118f3565b811461194357600080fd5b50565b6000813590506119558161192f565b92915050565b60008060408385031215611972576119716116f9565b5b600061198085828601611946565b925050602061199185828601611891565b9150509250929050565b6000806000606084860312156119b4576119b36116f9565b5b60006119c286828701611946565b93505060206119d386828701611946565b92505060406119e486828701611891565b9150509250925092565b600080fd5b600080fd5b7f4e487b7100000000000000000000000000000000000000000000000000000000600052604160045260246000fd5b611a3082611804565b810181811067ffffffffffffffff82111715611a4f57611a4e6119f8565b5b80604052505050565b6000611a626116ef565b9050611a6e8282611a27565b919050565b600067ffffffffffffffff821115611a8e57611a8d6119f8565b5b611a9782611804565b9050602081019050919050565b82818337600083830152505050565b6000611ac6611ac184611a73565b611a58565b905082815260208101848484011115611ae257611ae16119f3565b5b611aed848285611aa4565b509392505050565b600082601f830112611b0a57611b096119ee565b5b8135611b1a848260208601611ab3565b91505092915050565b60008060408385031215611b3a57611b396116f9565b5b6000611b4885828601611946565b925050602083013567ffffffffffffffff811115611b6957611b686116fe565b5b611b7585828601611af5565b9150509250929050565b611b8881611870565b82525050565b6000602082019050611ba36000830184611b7f565b92915050565b600060208284031215611bbf57611bbe6116f9565b5b6000611bcd84828501611946565b91505092915050565b611bdf81611788565b8114611bea57600080fd5b50565b600081359050611bfc81611bd6565b92915050565b60008060408385031215611c1957611c186116f9565b5b6000611c2785828601611946565b9250506020611c3885828601611bed565b9150509250929050565b600067ffffffffffffffff821115611c5d57611c5c6119f8565b5b611c6682611804565b9050602081019050919050565b6000611c86611c8184611c42565b611a58565b905082815260208101848484011115611ca257611ca16119f3565b5b611cad848285611aa4565b509392505050565b600082601f830112611cca57611cc96119ee565b5b8135611cda848260208601611c73565b91505092915050565b60008060008060808587031215611cfd57611cfc6116f9565b5b6000611d0b87828801611946565b9450506020611d1c87828801611946565b9350506040611d2d87828801611891565b925050606085013567ffffffffffffffff811115611d4e57611d4d6116fe565b5b611d5a87828801611cb5565b91505092959194509250565b60008060408385031215611d7d57611d7c6116f9565b5b6000611d8b85828601611946565b9250506020611d9c85828601611946565b9150509250929050565b7f4e487b7100000000000000000000000000000000000000000000000000000000600052602260045260246000fd5b60006002820490506001821680611ded57607f821691505b602082108103611e0057611dff611da6565b5b50919050565b6000606082019050611e1b6000830186611905565b611e286020830185611b7f565b611e356040830184611905565b949350505050565b7f4e487b7100000000000000000000000000000000000000000000000000000000600052601160045260246000fd5b6000611e7782611870565b91507fffffffffffffffffffffffffffffffffffffffffffffffffffffffffffffffff8203611ea957611ea8611e3d565b5b600182019050919050565b60008190508160005260206000209050919050565b60006020601f8301049050919050565b600082821b905092915050565b600060088302611f167fffffffffffffffffffffffffffffffffffffffffffffffffffffffffffffffff82611ed9565b611f208683611ed9565b95508019841693508086168417925050509392505050565b6000819050919050565b6000611f5d611f58611f5384611870565b611f38565b611870565b9050919050565b6000819050919050565b611f7783611f42565b611f8b611f8382611f64565b848454611ee6565b825550505050565b600090565b611fa0611f93565b611fab818484611f6e565b505050565b5b81811015611fcf57611fc4600082611f98565b600181019050611fb1565b5050565b601f82111561201457611fe581611eb4565b611fee84611ec9565b81016020851015611ffd578190505b61201161200985611ec9565b830182611fb0565b50505b505050565b600082821c905092915050565b600061203760001984600802612019565b1980831691505092915050565b60006120508383612026565b9150826002028217905092915050565b612069826117be565b67ffffffffffffffff811115612082576120816119f8565b5b61208c8254611dd5565b612097828285611fd3565b600060209050601f8311600181146120ca57600084156120b8578287015190505b6120c28582612044565b86555061212a565b601f1984166120d886611eb4565b60005b82811015612100578489015182556001820191506020850194506020810190506120db565b8683101561211d5784890151612119601f891682612026565b8355505b6001600288020188555050505b505050505050565b7f55524920717565727920666f72206e6f6e6578697374656e7420746f6b656e00600082015250565b6000612168601f836117c9565b915061217382612132565b602082019050919050565b600060208201905081810360008301526121978161215b565b9050919050565b600081519050919050565b600082825260208201905092915050565b60006121c58261219e565b6121cf81856121a9565b93506121df8185602086016117da565b6121e881611804565b840191505092915050565b60006080820190506122086000830187611905565b6122156020830186611905565b6122226040830185611b7f565b818103606083015261223481846121ba565b905095945050505050565b60008151905061224e8161172f565b92915050565b60006020828403121561226a576122696116f9565b5b60006122788482850161223f565b91505092915050565b60006040820190506122966000830185611905565b6122a36020830184611b7f565b939250505056fea26469706673582212201a3af8c09c4efb24fe624eb2205d593a68e34ff7167f2561eaf69727087393d164736f6c63430008140033",
  "linkReferences": {},
  "deployedLinkReferences": {}
}